{
  "contractName": "Axon",
  "abi": [
    {
      "inputs": [
        {
          "internalType": "string",
          "name": "_name",
          "type": "string"
        },
        {
          "internalType": "string",
          "name": "_token",
          "type": "string"
        },
        {
          "internalType": "address",
          "name": "p_salesContract",
          "type": "address"
        },
        {
          "internalType": "address",
          "name": "p_companyaddress",
          "type": "address"
        },
        {
          "internalType": "address",
          "name": "p_liquidityaddress",
          "type": "address"
        },
        {
          "internalType": "address",
          "name": "p_addressStake",
          "type": "address"
        },
        {
          "internalType": "address",
          "name": "p_wmatic",
          "type": "address"
        }
      ],
      "stateMutability": "nonpayable",
      "type": "constructor"
    },
    {
      "anonymous": false,
      "inputs": [
        {
          "indexed": true,
          "internalType": "address",
          "name": "owner",
          "type": "address"
        },
        {
          "indexed": true,
          "internalType": "address",
          "name": "spender",
          "type": "address"
        },
        {
          "indexed": false,
          "internalType": "uint256",
          "name": "value",
          "type": "uint256"
        }
      ],
      "name": "Approval",
      "type": "event"
    },
    {
      "anonymous": false,
      "inputs": [
        {
          "indexed": true,
          "internalType": "address",
          "name": "previousOwner",
          "type": "address"
        },
        {
          "indexed": true,
          "internalType": "address",
          "name": "newOwner",
          "type": "address"
        }
      ],
      "name": "OwnershipTransferred",
      "type": "event"
    },
    {
      "anonymous": false,
      "inputs": [
        {
          "indexed": true,
          "internalType": "address",
          "name": "from",
          "type": "address"
        },
        {
          "indexed": true,
          "internalType": "address",
          "name": "to",
          "type": "address"
        },
        {
          "indexed": false,
          "internalType": "uint256",
          "name": "value",
          "type": "uint256"
        }
      ],
      "name": "Transfer",
      "type": "event"
    },
    {
      "inputs": [
        {
          "internalType": "address",
          "name": "owner",
          "type": "address"
        },
        {
          "internalType": "address",
          "name": "spender",
          "type": "address"
        }
      ],
      "name": "allowance",
      "outputs": [
        {
          "internalType": "uint256",
          "name": "",
          "type": "uint256"
        }
      ],
      "stateMutability": "view",
      "type": "function"
    },
    {
      "inputs": [
        {
          "internalType": "address",
          "name": "spender",
          "type": "address"
        },
        {
          "internalType": "uint256",
          "name": "amount",
          "type": "uint256"
        }
      ],
      "name": "approve",
      "outputs": [
        {
          "internalType": "bool",
          "name": "",
          "type": "bool"
        }
      ],
      "stateMutability": "nonpayable",
      "type": "function"
    },
    {
      "inputs": [
        {
          "internalType": "address",
          "name": "account",
          "type": "address"
        }
      ],
      "name": "balanceOf",
      "outputs": [
        {
          "internalType": "uint256",
          "name": "",
          "type": "uint256"
        }
      ],
      "stateMutability": "view",
      "type": "function"
    },
    {
      "inputs": [
        {
          "internalType": "uint256",
          "name": "amount",
          "type": "uint256"
        }
      ],
      "name": "burn",
      "outputs": [],
      "stateMutability": "nonpayable",
      "type": "function"
    },
    {
      "inputs": [
        {
          "internalType": "address",
          "name": "account",
          "type": "address"
        },
        {
          "internalType": "uint256",
          "name": "amount",
          "type": "uint256"
        }
      ],
      "name": "burnFrom",
      "outputs": [],
      "stateMutability": "nonpayable",
      "type": "function"
    },
    {
      "inputs": [],
      "name": "decimals",
      "outputs": [
        {
          "internalType": "uint8",
          "name": "",
          "type": "uint8"
        }
      ],
      "stateMutability": "view",
      "type": "function"
    },
    {
      "inputs": [
        {
          "internalType": "address",
          "name": "spender",
          "type": "address"
        },
        {
          "internalType": "uint256",
          "name": "subtractedValue",
          "type": "uint256"
        }
      ],
      "name": "decreaseAllowance",
      "outputs": [
        {
          "internalType": "bool",
          "name": "",
          "type": "bool"
        }
      ],
      "stateMutability": "nonpayable",
      "type": "function"
    },
    {
      "inputs": [
        {
          "internalType": "address",
          "name": "spender",
          "type": "address"
        },
        {
          "internalType": "uint256",
          "name": "addedValue",
          "type": "uint256"
        }
      ],
      "name": "increaseAllowance",
      "outputs": [
        {
          "internalType": "bool",
          "name": "",
          "type": "bool"
        }
      ],
      "stateMutability": "nonpayable",
      "type": "function"
    },
    {
      "inputs": [],
      "name": "name",
      "outputs": [
        {
          "internalType": "string",
          "name": "",
          "type": "string"
        }
      ],
      "stateMutability": "view",
      "type": "function"
    },
    {
      "inputs": [],
      "name": "owner",
      "outputs": [
        {
          "internalType": "address",
          "name": "",
          "type": "address"
        }
      ],
      "stateMutability": "view",
      "type": "function"
    },
    {
      "inputs": [],
      "name": "renounceOwnership",
      "outputs": [],
      "stateMutability": "nonpayable",
      "type": "function"
    },
    {
      "inputs": [],
      "name": "symbol",
      "outputs": [
        {
          "internalType": "string",
          "name": "",
          "type": "string"
        }
      ],
      "stateMutability": "view",
      "type": "function"
    },
    {
      "inputs": [],
      "name": "totalSupply",
      "outputs": [
        {
          "internalType": "uint256",
          "name": "",
          "type": "uint256"
        }
      ],
      "stateMutability": "view",
      "type": "function"
    },
    {
      "inputs": [
        {
          "internalType": "address",
          "name": "newOwner",
          "type": "address"
        }
      ],
      "name": "transferOwnership",
      "outputs": [],
      "stateMutability": "nonpayable",
      "type": "function"
    },
    {
      "inputs": [],
      "name": "salesContract",
      "outputs": [
        {
          "internalType": "address",
          "name": "",
          "type": "address"
        }
      ],
      "stateMutability": "view",
      "type": "function"
    },
    {
      "inputs": [],
      "name": "addressStake",
      "outputs": [
        {
          "internalType": "address",
          "name": "",
          "type": "address"
        }
      ],
      "stateMutability": "view",
      "type": "function"
    },
    {
      "inputs": [],
      "name": "companyAddress",
      "outputs": [
        {
          "internalType": "address",
          "name": "",
          "type": "address"
        }
      ],
      "stateMutability": "view",
      "type": "function"
    },
    {
      "inputs": [],
      "name": "percentFee",
      "outputs": [
        {
          "internalType": "uint256",
          "name": "",
          "type": "uint256"
        }
      ],
      "stateMutability": "view",
      "type": "function"
    },
    {
      "inputs": [],
      "name": "poolAddress",
      "outputs": [
        {
          "internalType": "address",
          "name": "",
          "type": "address"
        }
      ],
      "stateMutability": "view",
      "type": "function"
    },
    {
      "inputs": [
        {
          "internalType": "address",
          "name": "p_poolAddress",
          "type": "address"
        }
      ],
      "name": "setPoolAddress",
      "outputs": [
        {
          "internalType": "bool",
          "name": "",
          "type": "bool"
        }
      ],
      "stateMutability": "nonpayable",
      "type": "function"
    },
    {
      "inputs": [
        {
          "internalType": "address",
          "name": "p_to",
          "type": "address"
        },
        {
          "internalType": "uint256",
          "name": "p_amount",
          "type": "uint256"
        }
      ],
      "name": "transfer",
      "outputs": [
        {
          "internalType": "bool",
          "name": "",
          "type": "bool"
        }
      ],
      "stateMutability": "nonpayable",
      "type": "function"
    },
    {
      "inputs": [
        {
          "internalType": "address",
          "name": "p_from",
          "type": "address"
        },
        {
          "internalType": "address",
          "name": "p_to",
          "type": "address"
        },
        {
          "internalType": "uint256",
          "name": "p_amount",
          "type": "uint256"
        }
      ],
      "name": "transferFrom",
      "outputs": [
        {
          "internalType": "bool",
          "name": "",
          "type": "bool"
        }
      ],
      "stateMutability": "nonpayable",
      "type": "function"
    },
    {
      "inputs": [
        {
          "internalType": "address",
          "name": "_newaddressStake",
          "type": "address"
        }
      ],
      "name": "setaddressStake",
      "outputs": [
        {
          "internalType": "bool",
          "name": "",
          "type": "bool"
        }
      ],
      "stateMutability": "nonpayable",
      "type": "function"
    },
    {
      "inputs": [
        {
          "internalType": "address",
          "name": "_tokenPool",
          "type": "address"
        }
      ],
      "name": "initPool",
      "outputs": [],
      "stateMutability": "nonpayable",
      "type": "function"
    },
    {
      "inputs": [
        {
          "internalType": "uint256",
          "name": "p_amountToTransfer",
          "type": "uint256"
        }
      ],
      "name": "_amountFee",
      "outputs": [
        {
          "internalType": "uint256",
          "name": "",
          "type": "uint256"
        }
      ],
      "stateMutability": "view",
      "type": "function"
    }
  ],
  "bytecode": "0x60a060405268056bc75e2d631000006006556729a2241af62c00006007556303c267006008553480156200003257600080fd5b50604051620030bd380380620030bd8339818101604052810190620000589190620008ae565b8686816003908051906020019062000072929190620005fc565b5080600490805190602001906200008b929190620005fc565b505050620000ae620000a2620003ac60201b60201c565b620003b460201b60201c565b84600a60006101000a81548173ffffffffffffffffffffffffffffffffffffffff021916908373ffffffffffffffffffffffffffffffffffffffff16021790555083600b60006101000a81548173ffffffffffffffffffffffffffffffffffffffff021916908373ffffffffffffffffffffffffffffffffffffffff16021790555082600c60006101000a81548173ffffffffffffffffffffffffffffffffffffffff021916908373ffffffffffffffffffffffffffffffffffffffff16021790555081600d60006101000a81548173ffffffffffffffffffffffffffffffffffffffff021916908373ffffffffffffffffffffffffffffffffffffffff160217905550620001f2600a60009054906101000a900473ffffffffffffffffffffffffffffffffffffffff166b019d971e4fe8401e740000006200047a60201b60201c565b62000231600b60009054906101000a900473ffffffffffffffffffffffffffffffffffffffff166af8277896582678ac0000006200047a60201b60201c565b62000270600c60009054906101000a900473ffffffffffffffffffffffffffffffffffffffff166aa56fa5b99019a5c80000006200047a60201b60201c565b6001600f6000600a60009054906101000a900473ffffffffffffffffffffffffffffffffffffffff1673ffffffffffffffffffffffffffffffffffffffff1673ffffffffffffffffffffffffffffffffffffffff16815260200190815260200160002060006101000a81548160ff0219169083151502179055506001600f6000600c60009054906101000a900473ffffffffffffffffffffffffffffffffffffffff1673ffffffffffffffffffffffffffffffffffffffff1673ffffffffffffffffffffffffffffffffffffffff16815260200190815260200160002060006101000a81548160ff0219169083151502179055508073ffffffffffffffffffffffffffffffffffffffff1660808173ffffffffffffffffffffffffffffffffffffffff1681525050426009819055505050505050505062000b4a565b600033905090565b6000600560009054906101000a900473ffffffffffffffffffffffffffffffffffffffff16905081600560006101000a81548173ffffffffffffffffffffffffffffffffffffffff021916908373ffffffffffffffffffffffffffffffffffffffff1602179055508173ffffffffffffffffffffffffffffffffffffffff168173ffffffffffffffffffffffffffffffffffffffff167f8be0079c531659141344cd1fd0a4f28419497f9722a3daafe3b4186f6b6457e060405160405180910390a35050565b600073ffffffffffffffffffffffffffffffffffffffff168273ffffffffffffffffffffffffffffffffffffffff1603620004ec576040517f08c379a0000000000000000000000000000000000000000000000000000000008152600401620004e39062000a00565b60405180910390fd5b6200050060008383620005f260201b60201c565b806002600082825462000514919062000a5b565b92505081905550806000808473ffffffffffffffffffffffffffffffffffffffff1673ffffffffffffffffffffffffffffffffffffffff16815260200190815260200160002060008282546200056b919062000a5b565b925050819055508173ffffffffffffffffffffffffffffffffffffffff16600073ffffffffffffffffffffffffffffffffffffffff167fddf252ad1be2c89b69c2b068fc378daa952ba7f163c4a11628f55a4df523b3ef83604051620005d2919062000ac9565b60405180910390a3620005ee60008383620005f760201b60201c565b5050565b505050565b505050565b8280546200060a9062000b15565b90600052602060002090601f0160209004810192826200062e57600085556200067a565b82601f106200064957805160ff19168380011785556200067a565b828001600101855582156200067a579182015b82811115620006795782518255916020019190600101906200065c565b5b5090506200068991906200068d565b5090565b5b80821115620006a85760008160009055506001016200068e565b5090565b6000604051905090565b600080fd5b600080fd5b600080fd5b600080fd5b6000601f19601f8301169050919050565b7f4e487b7100000000000000000000000000000000000000000000000000000000600052604160045260246000fd5b6200071582620006ca565b810181811067ffffffffffffffff82111715620007375762000736620006db565b5b80604052505050565b60006200074c620006ac565b90506200075a82826200070a565b919050565b600067ffffffffffffffff8211156200077d576200077c620006db565b5b6200078882620006ca565b9050602081019050919050565b60005b83811015620007b557808201518184015260208101905062000798565b83811115620007c5576000848401525b50505050565b6000620007e2620007dc846200075f565b62000740565b905082815260208101848484011115620008015762000800620006c5565b5b6200080e84828562000795565b509392505050565b600082601f8301126200082e576200082d620006c0565b5b815162000840848260208601620007cb565b91505092915050565b600073ffffffffffffffffffffffffffffffffffffffff82169050919050565b6000620008768262000849565b9050919050565b620008888162000869565b81146200089457600080fd5b50565b600081519050620008a8816200087d565b92915050565b600080600080600080600060e0888a031215620008d057620008cf620006b6565b5b600088015167ffffffffffffffff811115620008f157620008f0620006bb565b5b620008ff8a828b0162000816565b975050602088015167ffffffffffffffff811115620009235762000922620006bb565b5b620009318a828b0162000816565b9650506040620009448a828b0162000897565b9550506060620009578a828b0162000897565b94505060806200096a8a828b0162000897565b93505060a06200097d8a828b0162000897565b92505060c0620009908a828b0162000897565b91505092959891949750929550565b600082825260208201905092915050565b7f45524332303a206d696e7420746f20746865207a65726f206164647265737300600082015250565b6000620009e8601f836200099f565b9150620009f582620009b0565b602082019050919050565b6000602082019050818103600083015262000a1b81620009d9565b9050919050565b6000819050919050565b7f4e487b7100000000000000000000000000000000000000000000000000000000600052601160045260246000fd5b600062000a688262000a22565b915062000a758362000a22565b9250827fffffffffffffffffffffffffffffffffffffffffffffffffffffffffffffffff0382111562000aad5762000aac62000a2c565b5b828201905092915050565b62000ac38162000a22565b82525050565b600060208201905062000ae0600083018462000ab8565b92915050565b7f4e487b7100000000000000000000000000000000000000000000000000000000600052602260045260246000fd5b6000600282049050600182168062000b2e57607f821691505b60208210810362000b445762000b4362000ae6565b5b50919050565b60805161255a62000b636000396000505061255a6000f3fe608060405234801561001057600080fd5b50600436106101735760003560e01c806370a08231116100de578063a457c2d711610097578063dd62ed3e11610071578063dd62ed3e14610466578063e9e15b4f14610496578063f2fde38b146104c6578063f7d372f1146104e257610173565b8063a457c2d7146103e8578063a9059cbb14610418578063b1d3ea611461044857610173565b806370a0823114610326578063715018a61461035657806373c08ec31461036057806379cc6790146103905780638da5cb5b146103ac57806395d89b41146103ca57610173565b8063313ce56711610130578063313ce56714610262578063395093511461028057806342966c68146102b05780634ba4a63d146102cc5780634c1a4115146102ea57806353e1ead91461030857610173565b806306fdde0314610178578063095ea7b3146101965780630ff84135146101c65780631755ff21146101f657806318160ddd1461021457806323b872dd14610232575b600080fd5b6101806104fe565b60405161018d91906119e1565b60405180910390f35b6101b060048036038101906101ab9190611a9c565b610590565b6040516101bd9190611af7565b60405180910390f35b6101e060048036038101906101db9190611b12565b6105b3565b6040516101ed9190611b4e565b60405180910390f35b6101fe6105cd565b60405161020b9190611b78565b60405180910390f35b61021c6105f7565b6040516102299190611b4e565b60405180910390f35b61024c60048036038101906102479190611b93565b610601565b6040516102599190611af7565b60405180910390f35b61026a610673565b6040516102779190611c02565b60405180910390f35b61029a60048036038101906102959190611a9c565b61067c565b6040516102a79190611af7565b60405180910390f35b6102ca60048036038101906102c59190611b12565b6106b3565b005b6102d46106c7565b6040516102e19190611b78565b60405180910390f35b6102f26106f1565b6040516102ff9190611b4e565b60405180910390f35b610310610700565b60405161031d9190611b78565b60405180910390f35b610340600480360381019061033b9190611c1d565b61072a565b60405161034d9190611b4e565b60405180910390f35b61035e610772565b005b61037a60048036038101906103759190611c1d565b610786565b6040516103879190611af7565b60405180910390f35b6103aa60048036038101906103a59190611a9c565b6107da565b005b6103b46107fa565b6040516103c19190611b78565b60405180910390f35b6103d2610824565b6040516103df91906119e1565b60405180910390f35b61040260048036038101906103fd9190611a9c565b6108b6565b60405161040f9190611af7565b60405180910390f35b610432600480360381019061042d9190611a9c565b61092d565b60405161043f9190611af7565b60405180910390f35b61045061099d565b60405161045d9190611b78565b60405180910390f35b610480600480360381019061047b9190611c4a565b6109c7565b60405161048d9190611b4e565b60405180910390f35b6104b060048036038101906104ab9190611c1d565b610a4e565b6040516104bd9190611af7565b60405180910390f35b6104e060048036038101906104db9190611c1d565b610be4565b005b6104fc60048036038101906104f79190611c1d565b610c67565b005b60606003805461050d90611cb9565b80601f016020809104026020016040519081016040528092919081815260200182805461053990611cb9565b80156105865780601f1061055b57610100808354040283529160200191610586565b820191906000526020600020905b81548152906001019060200180831161056957829003601f168201915b5050505050905090565b60008061059b610e23565b90506105a8818585610e2b565b600191505092915050565b60006105c6826105c1610ff4565b611088565b9050919050565b6000600e60009054906101000a900473ffffffffffffffffffffffffffffffffffffffff16905090565b6000600254905090565b6000600f60008573ffffffffffffffffffffffffffffffffffffffff1673ffffffffffffffffffffffffffffffffffffffff16815260200190815260200160002060009054906101000a900460ff1661065f5761065e84836110ab565b5b61066a8484846112c7565b90509392505050565b60006012905090565b600080610687610e23565b90506106a881858561069985896109c7565b6106a39190611d19565b610e2b565b600191505092915050565b6106c46106be610e23565b826112f6565b50565b6000600d60009054906101000a900473ffffffffffffffffffffffffffffffffffffffff16905090565b60006106fb610ff4565b905090565b6000600b60009054906101000a900473ffffffffffffffffffffffffffffffffffffffff16905090565b60008060008373ffffffffffffffffffffffffffffffffffffffff1673ffffffffffffffffffffffffffffffffffffffff168152602001908152602001600020549050919050565b61077a6114cc565b610784600061154a565b565b60006107906114cc565b81600d60006101000a81548173ffffffffffffffffffffffffffffffffffffffff021916908373ffffffffffffffffffffffffffffffffffffffff16021790555060019050919050565b6107ec826107e6610e23565b83611610565b6107f682826112f6565b5050565b6000600560009054906101000a900473ffffffffffffffffffffffffffffffffffffffff16905090565b60606004805461083390611cb9565b80601f016020809104026020016040519081016040528092919081815260200182805461085f90611cb9565b80156108ac5780601f10610881576101008083540402835291602001916108ac565b820191906000526020600020905b81548152906001019060200180831161088f57829003601f168201915b5050505050905090565b6000806108c1610e23565b905060006108cf82866109c7565b905083811015610914576040517f08c379a000000000000000000000000000000000000000000000000000000000815260040161090b90611de1565b60405180910390fd5b6109218286868403610e2b565b60019250505092915050565b6000600f60003373ffffffffffffffffffffffffffffffffffffffff1673ffffffffffffffffffffffffffffffffffffffff16815260200190815260200160002060009054906101000a900460ff1661098b5761098a33836110ab565b5b610995838361169c565b905092915050565b6000600a60009054906101000a900473ffffffffffffffffffffffffffffffffffffffff16905090565b6000600160008473ffffffffffffffffffffffffffffffffffffffff1673ffffffffffffffffffffffffffffffffffffffff16815260200190815260200160002060008373ffffffffffffffffffffffffffffffffffffffff1673ffffffffffffffffffffffffffffffffffffffff16815260200190815260200160002054905092915050565b6000610a586114cc565b600073ffffffffffffffffffffffffffffffffffffffff16600e60009054906101000a900473ffffffffffffffffffffffffffffffffffffffff1673ffffffffffffffffffffffffffffffffffffffff1614610b2057600f6000600e60009054906101000a900473ffffffffffffffffffffffffffffffffffffffff1673ffffffffffffffffffffffffffffffffffffffff1673ffffffffffffffffffffffffffffffffffffffff16815260200190815260200160002060006101000a81549060ff02191690555b81600e60006101000a81548173ffffffffffffffffffffffffffffffffffffffff021916908373ffffffffffffffffffffffffffffffffffffffff1602179055506001600f6000600e60009054906101000a900473ffffffffffffffffffffffffffffffffffffffff1673ffffffffffffffffffffffffffffffffffffffff1673ffffffffffffffffffffffffffffffffffffffff16815260200190815260200160002060006101000a81548160ff02191690831515021790555060019050919050565b610bec6114cc565b600073ffffffffffffffffffffffffffffffffffffffff168173ffffffffffffffffffffffffffffffffffffffff1603610c5b576040517f08c379a0000000000000000000000000000000000000000000000000000000008152600401610c5290611e73565b60405180910390fd5b610c648161154a565b50565b610c6f6114cc565b6000731f98431c8ad98523631ae4a59f267346ea31f9849050600073ffffffffffffffffffffffffffffffffffffffff168173ffffffffffffffffffffffffffffffffffffffff16631698ee823085610bb86040518463ffffffff1660e01b8152600401610cdf93929190611ee7565b602060405180830381865afa158015610cfc573d6000803e3d6000fd5b505050506040513d601f19601f82011682018060405250810190610d209190611f33565b73ffffffffffffffffffffffffffffffffffffffff1614610d4057600080fd5b60008173ffffffffffffffffffffffffffffffffffffffff1663a16712953085610bb86040518463ffffffff1660e01b8152600401610d8193929190611ee7565b6020604051808303816000875af1158015610da0573d6000803e3d6000fd5b505050506040513d601f19601f82011682018060405250810190610dc49190611f33565b90506001600f60008373ffffffffffffffffffffffffffffffffffffffff1673ffffffffffffffffffffffffffffffffffffffff16815260200190815260200160002060006101000a81548160ff021916908315150217905550505050565b600033905090565b600073ffffffffffffffffffffffffffffffffffffffff168373ffffffffffffffffffffffffffffffffffffffff1603610e9a576040517f08c379a0000000000000000000000000000000000000000000000000000000008152600401610e9190611fd2565b60405180910390fd5b600073ffffffffffffffffffffffffffffffffffffffff168273ffffffffffffffffffffffffffffffffffffffff1603610f09576040517f08c379a0000000000000000000000000000000000000000000000000000000008152600401610f0090612064565b60405180910390fd5b80600160008573ffffffffffffffffffffffffffffffffffffffff1673ffffffffffffffffffffffffffffffffffffffff16815260200190815260200160002060008473ffffffffffffffffffffffffffffffffffffffff1673ffffffffffffffffffffffffffffffffffffffff168152602001908152602001600020819055508173ffffffffffffffffffffffffffffffffffffffff168373ffffffffffffffffffffffffffffffffffffffff167f8c5be1e5ebec7d5bd14f71427d1e84f3dd0314c0f7b2291e5b200ac8c7c3b92583604051610fe79190611b4e565b60405180910390a3505050565b6000806008546009546110079190611d19565b905080421061101b57600754915050611085565b60006009544261102b9190612084565b905060006008546007546006546110429190612084565b61104c91906120e7565b90506000828261105c9190612118565b6006546110699190612084565b9050662386f26fc100008161107e91906120e7565b9450505050505b90565b600061271082846110999190612118565b6110a391906120e7565b905092915050565b60006110be826110b9610ff4565b611088565b90506064601e826110cf9190612118565b10611152576110f6836064601e846110e79190612118565b6110f191906120e7565b6112f6565b3373ffffffffffffffffffffffffffffffffffffffff168373ffffffffffffffffffffffffffffffffffffffff161461114d5761114b336064601e8461113c9190612118565b61114691906120e7565b6108b6565b505b61119e565b61115d8360016112f6565b3373ffffffffffffffffffffffffffffffffffffffff168373ffffffffffffffffffffffffffffffffffffffff161461119d5761119b3360016108b6565b505b5b60646046826111ad9190612118565b10611253576111f783600d60009054906101000a900473ffffffffffffffffffffffffffffffffffffffff1660646046856111e89190612118565b6111f291906120e7565b6116bf565b3373ffffffffffffffffffffffffffffffffffffffff168373ffffffffffffffffffffffffffffffffffffffff161461124e5761124c33606460468461123d9190612118565b61124791906120e7565b6108b6565b505b6112c2565b61128183600d60009054906101000a900473ffffffffffffffffffffffffffffffffffffffff1660016116bf565b3373ffffffffffffffffffffffffffffffffffffffff168373ffffffffffffffffffffffffffffffffffffffff16146112c1576112bf3360016108b6565b505b5b505050565b6000806112d2610e23565b90506112df858285611610565b6112ea8585856116bf565b60019150509392505050565b600073ffffffffffffffffffffffffffffffffffffffff168273ffffffffffffffffffffffffffffffffffffffff1603611365576040517f08c379a000000000000000000000000000000000000000000000000000000000815260040161135c906121e4565b60405180910390fd5b6113718260008361193e565b60008060008473ffffffffffffffffffffffffffffffffffffffff1673ffffffffffffffffffffffffffffffffffffffff168152602001908152602001600020549050818110156113f7576040517f08c379a00000000000000000000000000000000000000000000000000000000081526004016113ee90612276565b60405180910390fd5b8181036000808573ffffffffffffffffffffffffffffffffffffffff1673ffffffffffffffffffffffffffffffffffffffff16815260200190815260200160002081905550816002600082825461144e9190612084565b92505081905550600073ffffffffffffffffffffffffffffffffffffffff168373ffffffffffffffffffffffffffffffffffffffff167fddf252ad1be2c89b69c2b068fc378daa952ba7f163c4a11628f55a4df523b3ef846040516114b39190611b4e565b60405180910390a36114c783600084611943565b505050565b6114d4610e23565b73ffffffffffffffffffffffffffffffffffffffff166114f26107fa565b73ffffffffffffffffffffffffffffffffffffffff1614611548576040517f08c379a000000000000000000000000000000000000000000000000000000000815260040161153f906122e2565b60405180910390fd5b565b6000600560009054906101000a900473ffffffffffffffffffffffffffffffffffffffff16905081600560006101000a81548173ffffffffffffffffffffffffffffffffffffffff021916908373ffffffffffffffffffffffffffffffffffffffff1602179055508173ffffffffffffffffffffffffffffffffffffffff168173ffffffffffffffffffffffffffffffffffffffff167f8be0079c531659141344cd1fd0a4f28419497f9722a3daafe3b4186f6b6457e060405160405180910390a35050565b600061161c84846109c7565b90507fffffffffffffffffffffffffffffffffffffffffffffffffffffffffffffffff81146116965781811015611688576040517f08c379a000000000000000000000000000000000000000000000000000000000815260040161167f9061234e565b60405180910390fd5b6116958484848403610e2b565b5b50505050565b6000806116a7610e23565b90506116b48185856116bf565b600191505092915050565b600073ffffffffffffffffffffffffffffffffffffffff168373ffffffffffffffffffffffffffffffffffffffff160361172e576040517f08c379a0000000000000000000000000000000000000000000000000000000008152600401611725906123e0565b60405180910390fd5b600073ffffffffffffffffffffffffffffffffffffffff168273ffffffffffffffffffffffffffffffffffffffff160361179d576040517f08c379a000000000000000000000000000000000000000000000000000000000815260040161179490612472565b60405180910390fd5b6117a883838361193e565b60008060008573ffffffffffffffffffffffffffffffffffffffff1673ffffffffffffffffffffffffffffffffffffffff1681526020019081526020016000205490508181101561182e576040517f08c379a000000000000000000000000000000000000000000000000000000000815260040161182590612504565b60405180910390fd5b8181036000808673ffffffffffffffffffffffffffffffffffffffff1673ffffffffffffffffffffffffffffffffffffffff16815260200190815260200160002081905550816000808573ffffffffffffffffffffffffffffffffffffffff1673ffffffffffffffffffffffffffffffffffffffff16815260200190815260200160002060008282546118c19190611d19565b925050819055508273ffffffffffffffffffffffffffffffffffffffff168473ffffffffffffffffffffffffffffffffffffffff167fddf252ad1be2c89b69c2b068fc378daa952ba7f163c4a11628f55a4df523b3ef846040516119259190611b4e565b60405180910390a3611938848484611943565b50505050565b505050565b505050565b600081519050919050565b600082825260208201905092915050565b60005b83811015611982578082015181840152602081019050611967565b83811115611991576000848401525b50505050565b6000601f19601f8301169050919050565b60006119b382611948565b6119bd8185611953565b93506119cd818560208601611964565b6119d681611997565b840191505092915050565b600060208201905081810360008301526119fb81846119a8565b905092915050565b600080fd5b600073ffffffffffffffffffffffffffffffffffffffff82169050919050565b6000611a3382611a08565b9050919050565b611a4381611a28565b8114611a4e57600080fd5b50565b600081359050611a6081611a3a565b92915050565b6000819050919050565b611a7981611a66565b8114611a8457600080fd5b50565b600081359050611a9681611a70565b92915050565b60008060408385031215611ab357611ab2611a03565b5b6000611ac185828601611a51565b9250506020611ad285828601611a87565b9150509250929050565b60008115159050919050565b611af181611adc565b82525050565b6000602082019050611b0c6000830184611ae8565b92915050565b600060208284031215611b2857611b27611a03565b5b6000611b3684828501611a87565b91505092915050565b611b4881611a66565b82525050565b6000602082019050611b636000830184611b3f565b92915050565b611b7281611a28565b82525050565b6000602082019050611b8d6000830184611b69565b92915050565b600080600060608486031215611bac57611bab611a03565b5b6000611bba86828701611a51565b9350506020611bcb86828701611a51565b9250506040611bdc86828701611a87565b9150509250925092565b600060ff82169050919050565b611bfc81611be6565b82525050565b6000602082019050611c176000830184611bf3565b92915050565b600060208284031215611c3357611c32611a03565b5b6000611c4184828501611a51565b91505092915050565b60008060408385031215611c6157611c60611a03565b5b6000611c6f85828601611a51565b9250506020611c8085828601611a51565b9150509250929050565b7f4e487b7100000000000000000000000000000000000000000000000000000000600052602260045260246000fd5b60006002820490506001821680611cd157607f821691505b602082108103611ce457611ce3611c8a565b5b50919050565b7f4e487b7100000000000000000000000000000000000000000000000000000000600052601160045260246000fd5b6000611d2482611a66565b9150611d2f83611a66565b9250827fffffffffffffffffffffffffffffffffffffffffffffffffffffffffffffffff03821115611d6457611d63611cea565b5b828201905092915050565b7f45524332303a2064656372656173656420616c6c6f77616e63652062656c6f7760008201527f207a65726f000000000000000000000000000000000000000000000000000000602082015250565b6000611dcb602583611953565b9150611dd682611d6f565b604082019050919050565b60006020820190508181036000830152611dfa81611dbe565b9050919050565b7f4f776e61626c653a206e6577206f776e657220697320746865207a65726f206160008201527f6464726573730000000000000000000000000000000000000000000000000000602082015250565b6000611e5d602683611953565b9150611e6882611e01565b604082019050919050565b60006020820190508181036000830152611e8c81611e50565b9050919050565b6000819050919050565b600062ffffff82169050919050565b6000819050919050565b6000611ed1611ecc611ec784611e93565b611eac565b611e9d565b9050919050565b611ee181611eb6565b82525050565b6000606082019050611efc6000830186611b69565b611f096020830185611b69565b611f166040830184611ed8565b949350505050565b600081519050611f2d81611a3a565b92915050565b600060208284031215611f4957611f48611a03565b5b6000611f5784828501611f1e565b91505092915050565b7f45524332303a20617070726f76652066726f6d20746865207a65726f2061646460008201527f7265737300000000000000000000000000000000000000000000000000000000602082015250565b6000611fbc602483611953565b9150611fc782611f60565b604082019050919050565b60006020820190508181036000830152611feb81611faf565b9050919050565b7f45524332303a20617070726f766520746f20746865207a65726f20616464726560008201527f7373000000000000000000000000000000000000000000000000000000000000602082015250565b600061204e602283611953565b915061205982611ff2565b604082019050919050565b6000602082019050818103600083015261207d81612041565b9050919050565b600061208f82611a66565b915061209a83611a66565b9250828210156120ad576120ac611cea565b5b828203905092915050565b7f4e487b7100000000000000000000000000000000000000000000000000000000600052601260045260246000fd5b60006120f282611a66565b91506120fd83611a66565b92508261210d5761210c6120b8565b5b828204905092915050565b600061212382611a66565b915061212e83611a66565b9250817fffffffffffffffffffffffffffffffffffffffffffffffffffffffffffffffff048311821515161561216757612166611cea565b5b828202905092915050565b7f45524332303a206275726e2066726f6d20746865207a65726f2061646472657360008201527f7300000000000000000000000000000000000000000000000000000000000000602082015250565b60006121ce602183611953565b91506121d982612172565b604082019050919050565b600060208201905081810360008301526121fd816121c1565b9050919050565b7f45524332303a206275726e20616d6f756e7420657863656564732062616c616e60008201527f6365000000000000000000000000000000000000000000000000000000000000602082015250565b6000612260602283611953565b915061226b82612204565b604082019050919050565b6000602082019050818103600083015261228f81612253565b9050919050565b7f4f776e61626c653a2063616c6c6572206973206e6f7420746865206f776e6572600082015250565b60006122cc602083611953565b91506122d782612296565b602082019050919050565b600060208201905081810360008301526122fb816122bf565b9050919050565b7f45524332303a20696e73756666696369656e7420616c6c6f77616e6365000000600082015250565b6000612338601d83611953565b915061234382612302565b602082019050919050565b600060208201905081810360008301526123678161232b565b9050919050565b7f45524332303a207472616e736665722066726f6d20746865207a65726f20616460008201527f6472657373000000000000000000000000000000000000000000000000000000602082015250565b60006123ca602583611953565b91506123d58261236e565b604082019050919050565b600060208201905081810360008301526123f9816123bd565b9050919050565b7f45524332303a207472616e7366657220746f20746865207a65726f206164647260008201527f6573730000000000000000000000000000000000000000000000000000000000602082015250565b600061245c602383611953565b915061246782612400565b604082019050919050565b6000602082019050818103600083015261248b8161244f565b9050919050565b7f45524332303a207472616e7366657220616d6f756e742065786365656473206260008201527f616c616e63650000000000000000000000000000000000000000000000000000602082015250565b60006124ee602683611953565b91506124f982612492565b604082019050919050565b6000602082019050818103600083015261251d816124e1565b905091905056fea26469706673582212200465729bb12a02fb2c5e5077ce66e91e8cb8a1470030c6508f8be154ebd9341364736f6c634300080e0033",
  "immutableReferences": {},
  "source": "// SPDX-License-Identifier: MIT\r\npragma solidity ^0.8.14;\r\n\r\nimport \"@openzeppelin/contracts/token/ERC20/ERC20.sol\";\r\nimport \"@openzeppelin/contracts/token/ERC20/extensions/ERC20Burnable.sol\";\r\nimport \"@openzeppelin/contracts/access/Ownable.sol\";\r\nimport \"./interfaces/IUniswapV3Factory.sol\";\r\n\r\ncontract Axon is ERC20, ERC20Burnable, Ownable {\r\n    //////////////////////////////////////////////////////////////////////////////////////////////////\r\n    // State\r\n    //////////////////////////////////////////////////////////////////////////////////////////////////\r\n\r\n    uint256 private s_vestingPercentFee = 100 * 1 ether;  // Initial fee (100%)\r\n    uint256 private s_basePercentFee= 3 * 1 ether; // Minimund permanent fee (3%)\r\n    uint256 private s_timeVestingPeriod = 730 days; // 2 years (seconds)\r\n    uint256 private s_dateVestingStart;\r\n    \r\n    address private s_salesContract; // Sales contract address\r\n    address private s_companyAddress; // Company address\r\n    address private s_liquidityAddress; // Liquidity\r\n    address private s_addressStake; // Stake\r\n    address private s_poolAddress; // Pool Adddress Uniswap\r\n    \r\n    IUniswapV3Factory private constant FACTORY_UNISWAP = IUniswapV3Factory(0x1F98431c8aD98523631AE4a59f267346ea31F984);\r\n    address private immutable WMATIC;\r\n    mapping(address => bool) private whiteListFees; // No fees transfers.\r\n\r\n    //////////////////////////////////////////////////////////////////////////////////////////////////\r\n    // Constructor\r\n    ////////////////////////////////////////////////////////////////////////////////////////////////// \r\n\r\n    constructor(\r\n        string memory _name, \r\n        string memory _token,\r\n        address p_salesContract,\r\n        address p_companyaddress,\r\n        address p_liquidityaddress,\r\n        address p_addressStake,\r\n        address p_wmatic       \r\n    ) ERC20(_name, _token) {\r\n        s_salesContract = p_salesContract;\r\n        s_companyAddress = p_companyaddress;\r\n        s_liquidityAddress = p_liquidityaddress;\r\n        s_addressStake = p_addressStake;\r\n        \r\n        // Total Supply => 1000M (100%)\r\n        _mint(s_salesContract, 500 * 1000000 * 1 ether); // 500M (50%)\r\n        _mint(s_companyAddress, 300 * 1000000 * 1 ether); // 300M (30%)\r\n        _mint(s_liquidityAddress, 200 * 1000000 * 1 ether); // 200M (20%)\r\n\r\n        whiteListFees[s_salesContract] = true;\r\n        whiteListFees[s_liquidityAddress] = true;\r\n\r\n        // Polygon: 0x0d500B1d8E8eF31E21C99d1Db9A6444d3ADf1270\r\n        // Polygon Mumbai: 0x9c3C9283D3e44854697Cd22D3Faa240Cfb032889\r\n        WMATIC = p_wmatic; \r\n\r\n        s_dateVestingStart = block.timestamp;   \r\n    } \r\n\r\n    //////////////////////////////////////////////////////////////////////////////////////////////////\r\n    // Public functions\r\n    //////////////////////////////////////////////////////////////////////////////////////////////////   \r\n\r\n    // => View functions\r\n\r\n    function salesContract() public view returns(address) {\r\n        return s_salesContract;\r\n    }\r\n\r\n    function addressStake() public view returns(address) {\r\n        return s_addressStake;\r\n    }\r\n\r\n    function companyAddress() public view returns(address) {\r\n        return s_companyAddress;\r\n    }\r\n\r\n    function percentFee() public view returns(uint256) {\r\n        return _currentPercentFee();\r\n    }\r\n\r\n    function _amountFee(uint256 p_amountToTransfer) public view returns(uint256) {\r\n        return _amountFee(p_amountToTransfer, _currentPercentFee());\r\n    }\r\n\r\n    function poolAddress() public view returns(address) {\r\n        return s_poolAddress;\r\n    }\r\n\r\n    // => Set functions\r\n\r\n    function setPoolAddress(address p_poolAddress) public onlyOwner returns(bool) {\r\n        if (s_poolAddress != address(0)) { delete whiteListFees[s_poolAddress]; }\r\n\r\n        s_poolAddress = p_poolAddress;\r\n\r\n        whiteListFees[s_poolAddress] = true;\r\n\r\n        return true;\r\n    }\r\n    \r\n    function transfer(address p_to, uint256 p_amount) public virtual override returns(bool) {\r\n        if (!whiteListFees[msg.sender]) {\r\n            _executeFees(msg.sender, p_amount);\r\n        }\r\n        \r\n        return super.transfer(p_to, p_amount);\r\n    }\r\n\r\n    function transferFrom(address p_from, address p_to, uint256 p_amount) public virtual override returns (bool) {\r\n        if (!whiteListFees[p_from]) {\r\n            _executeFees(p_from, p_amount);\r\n        }    \r\n        \r\n        return super.transferFrom(p_from, p_to, p_amount);\r\n    }\r\n\r\n    function setaddressStake(address _newaddressStake) public onlyOwner returns(bool) {\r\n        s_addressStake = _newaddressStake;\r\n        \r\n        return true;\r\n    }\r\n\r\n    //delete\r\n    function _toggleWhitelist(address _account) internal  {\r\n        whiteListFees[_account] = !whiteListFees[_account];\r\n    }\r\n\r\n    function initPool(address _tokenPool) public onlyOwner {\r\n        IUniswapV3Factory factory = IUniswapV3Factory(0x1F98431c8aD98523631AE4a59f267346ea31F984);\r\n        require(factory.getPool(address(this), _tokenPool, 3000) == address(0)); \r\n        address pool = factory.createPool(address(this), _tokenPool, 3000);\r\n\r\n        whiteListFees[pool] =true;\r\n    }\r\n\r\n    //////////////////////////////////////////////////////////////////////////////////////////////////\r\n    // Internal functions\r\n    //////////////////////////////////////////////////////////////////////////////////////////////////\r\n\r\n    // Percent Fee\r\n    function _currentPercentFee() internal view returns(uint256) {\r\n        uint256 finalTime = s_dateVestingStart + s_timeVestingPeriod;\r\n\r\n        if (block.timestamp >= finalTime) { return s_basePercentFee; }\r\n\r\n        uint256 diffTimeSeconds = block.timestamp - s_dateVestingStart;\r\n        uint256 discountPercentSecond = (s_vestingPercentFee - s_basePercentFee) / (s_timeVestingPeriod) ;\r\n        uint256 percentFee18Decimals = s_vestingPercentFee - (discountPercentSecond * diffTimeSeconds);\r\n\r\n        return percentFee18Decimals / 0.01 ether; // 2 decimals\r\n    }\r\n\r\n    // Amount Fee\r\n    function _amountFee(uint256 p_amountToTransfer, uint256 p__currentPercentFee) internal pure returns(uint256) {\r\n        return  (p_amountToTransfer * p__currentPercentFee) / 10000;\r\n    }\r\n\r\n    function _executeFees(address p_from, uint256 p_amount) internal {\r\n        uint256 total_amountFee = _amountFee(p_amount, _currentPercentFee());\r\n\r\n        if (total_amountFee * 30 >= 100){\r\n            _burn(p_from, (total_amountFee * 30) / 100);\r\n\r\n            if (p_from != msg.sender) { decreaseAllowance(msg.sender, (total_amountFee * 30) / 100); }\r\n        } else {\r\n            _burn(p_from, 1);\r\n\r\n            if (p_from != msg.sender) { decreaseAllowance(msg.sender, 1); }\r\n        }\r\n\r\n        if (total_amountFee * 70 >= 100){\r\n            _transfer(p_from, s_addressStake, (total_amountFee * 70) / 100);  \r\n\r\n            if (p_from != msg.sender) { decreaseAllowance(msg.sender, (total_amountFee * 70) / 100); }    \r\n        } else {\r\n            _transfer(p_from, s_addressStake, 1);\r\n\r\n            if (p_from != msg.sender) { decreaseAllowance(msg.sender, 1); }\r\n        }\r\n    }\r\n}",
  "sourcePath": "C:\\Users\\PatoVerde\\Documents\\WORK\\AuriNext\\contracts\\Axon.sol",
  "compiler": {
    "name": "solc",
    "version": "0.8.14+commit.80d49f37.Emscripten.clang"
  },
  "schemaVersion": "3.4.8",
  "updatedAt": "2022-07-14T14:08:10.770Z",
  "devdoc": {
    "kind": "dev",
    "methods": {
      "allowance(address,address)": {
        "details": "See {IERC20-allowance}."
      },
      "approve(address,uint256)": {
        "details": "See {IERC20-approve}. NOTE: If `amount` is the maximum `uint256`, the allowance is not updated on `transferFrom`. This is semantically equivalent to an infinite approval. Requirements: - `spender` cannot be the zero address."
      },
      "balanceOf(address)": {
        "details": "See {IERC20-balanceOf}."
      },
      "burn(uint256)": {
        "details": "Destroys `amount` tokens from the caller. See {ERC20-_burn}."
      },
      "burnFrom(address,uint256)": {
        "details": "Destroys `amount` tokens from `account`, deducting from the caller's allowance. See {ERC20-_burn} and {ERC20-allowance}. Requirements: - the caller must have allowance for ``accounts``'s tokens of at least `amount`."
      },
      "decimals()": {
        "details": "Returns the number of decimals used to get its user representation. For example, if `decimals` equals `2`, a balance of `505` tokens should be displayed to a user as `5.05` (`505 / 10 ** 2`). Tokens usually opt for a value of 18, imitating the relationship between Ether and Wei. This is the value {ERC20} uses, unless this function is overridden; NOTE: This information is only used for _display_ purposes: it in no way affects any of the arithmetic of the contract, including {IERC20-balanceOf} and {IERC20-transfer}."
      },
      "decreaseAllowance(address,uint256)": {
        "details": "Atomically decreases the allowance granted to `spender` by the caller. This is an alternative to {approve} that can be used as a mitigation for problems described in {IERC20-approve}. Emits an {Approval} event indicating the updated allowance. Requirements: - `spender` cannot be the zero address. - `spender` must have allowance for the caller of at least `subtractedValue`."
      },
      "increaseAllowance(address,uint256)": {
        "details": "Atomically increases the allowance granted to `spender` by the caller. This is an alternative to {approve} that can be used as a mitigation for problems described in {IERC20-approve}. Emits an {Approval} event indicating the updated allowance. Requirements: - `spender` cannot be the zero address."
      },
      "name()": {
        "details": "Returns the name of the token."
      },
      "owner()": {
        "details": "Returns the address of the current owner."
      },
      "renounceOwnership()": {
        "details": "Leaves the contract without owner. It will not be possible to call `onlyOwner` functions anymore. Can only be called by the current owner. NOTE: Renouncing ownership will leave the contract without an owner, thereby removing any functionality that is only available to the owner."
      },
      "symbol()": {
        "details": "Returns the symbol of the token, usually a shorter version of the name."
      },
      "totalSupply()": {
        "details": "See {IERC20-totalSupply}."
      },
      "transferOwnership(address)": {
        "details": "Transfers ownership of the contract to a new account (`newOwner`). Can only be called by the current owner."
      }
    },
    "version": 1
  },
  "userdoc": {
    "kind": "user",
    "methods": {},
    "version": 1
  }
}