{
  "contractName": "AxonSale",
  "abi": [
    {
      "inputs": [
        {
          "internalType": "address",
          "name": "p_daiAddress",
          "type": "address"
        }
      ],
      "stateMutability": "nonpayable",
      "type": "constructor"
    },
    {
      "anonymous": false,
      "inputs": [
        {
          "indexed": true,
          "internalType": "address",
          "name": "previousOwner",
          "type": "address"
        },
        {
          "indexed": true,
          "internalType": "address",
          "name": "newOwner",
          "type": "address"
        }
      ],
      "name": "OwnershipTransferred",
      "type": "event"
    },
    {
      "anonymous": false,
      "inputs": [
        {
          "indexed": false,
          "internalType": "uint256",
          "name": "e_price",
          "type": "uint256"
        },
        {
          "indexed": false,
          "internalType": "uint256",
          "name": "e_amount",
          "type": "uint256"
        },
        {
          "indexed": false,
          "internalType": "uint256",
          "name": "e_total",
          "type": "uint256"
        }
      ],
      "name": "newBuyEvent",
      "type": "event"
    },
    {
      "anonymous": false,
      "inputs": [
        {
          "indexed": false,
          "internalType": "uint256",
          "name": "e_price",
          "type": "uint256"
        },
        {
          "indexed": false,
          "internalType": "uint256",
          "name": "e_amount",
          "type": "uint256"
        },
        {
          "indexed": false,
          "internalType": "uint256",
          "name": "e_time",
          "type": "uint256"
        }
      ],
      "name": "newSaleEvent",
      "type": "event"
    },
    {
      "inputs": [],
      "name": "DAI_CONTRACT",
      "outputs": [
        {
          "internalType": "contract IERC20",
          "name": "",
          "type": "address"
        }
      ],
      "stateMutability": "view",
      "type": "function"
    },
    {
      "inputs": [],
      "name": "owner",
      "outputs": [
        {
          "internalType": "address",
          "name": "",
          "type": "address"
        }
      ],
      "stateMutability": "view",
      "type": "function"
    },
    {
      "inputs": [],
      "name": "renounceOwnership",
      "outputs": [],
      "stateMutability": "nonpayable",
      "type": "function"
    },
    {
      "inputs": [],
      "name": "s_axonTokenContract",
      "outputs": [
        {
          "internalType": "contract IERC20",
          "name": "",
          "type": "address"
        }
      ],
      "stateMutability": "view",
      "type": "function"
    },
    {
      "inputs": [
        {
          "internalType": "address",
          "name": "newOwner",
          "type": "address"
        }
      ],
      "name": "transferOwnership",
      "outputs": [],
      "stateMutability": "nonpayable",
      "type": "function"
    },
    {
      "inputs": [],
      "name": "getPrice",
      "outputs": [
        {
          "internalType": "uint256",
          "name": "",
          "type": "uint256"
        }
      ],
      "stateMutability": "view",
      "type": "function"
    },
    {
      "inputs": [],
      "name": "getAmountToSale",
      "outputs": [
        {
          "internalType": "uint256",
          "name": "",
          "type": "uint256"
        }
      ],
      "stateMutability": "view",
      "type": "function"
    },
    {
      "inputs": [],
      "name": "getAmountSold",
      "outputs": [
        {
          "internalType": "uint256",
          "name": "",
          "type": "uint256"
        }
      ],
      "stateMutability": "view",
      "type": "function"
    },
    {
      "inputs": [],
      "name": "getTotalAmountSold",
      "outputs": [
        {
          "internalType": "uint256",
          "name": "",
          "type": "uint256"
        }
      ],
      "stateMutability": "view",
      "type": "function"
    },
    {
      "inputs": [],
      "name": "totalCurrentDai",
      "outputs": [
        {
          "internalType": "uint256",
          "name": "",
          "type": "uint256"
        }
      ],
      "stateMutability": "view",
      "type": "function"
    },
    {
      "inputs": [
        {
          "internalType": "address",
          "name": "p_axonToken",
          "type": "address"
        }
      ],
      "name": "setAxonToken",
      "outputs": [
        {
          "internalType": "bool",
          "name": "",
          "type": "bool"
        }
      ],
      "stateMutability": "nonpayable",
      "type": "function"
    },
    {
      "inputs": [
        {
          "internalType": "uint256",
          "name": "p_price",
          "type": "uint256"
        },
        {
          "internalType": "uint256",
          "name": "p_amount",
          "type": "uint256"
        },
        {
          "internalType": "uint256",
          "name": "p_durationSeconds",
          "type": "uint256"
        }
      ],
      "name": "newSale",
      "outputs": [
        {
          "internalType": "bool",
          "name": "",
          "type": "bool"
        }
      ],
      "stateMutability": "nonpayable",
      "type": "function"
    },
    {
      "inputs": [
        {
          "internalType": "uint256",
          "name": "p_amount",
          "type": "uint256"
        }
      ],
      "name": "buyTokens",
      "outputs": [
        {
          "internalType": "bool",
          "name": "",
          "type": "bool"
        }
      ],
      "stateMutability": "nonpayable",
      "type": "function"
    },
    {
      "inputs": [],
      "name": "withdrawDai",
      "outputs": [
        {
          "internalType": "bool",
          "name": "",
          "type": "bool"
        }
      ],
      "stateMutability": "nonpayable",
      "type": "function"
    }
  ],
  "bytecode": "0x60a06040523480156200001157600080fd5b5060405162001698380380620016988339818101604052810190620000379190620001c8565b620000576200004b6200009260201b60201c565b6200009a60201b60201c565b8073ffffffffffffffffffffffffffffffffffffffff1660808173ffffffffffffffffffffffffffffffffffffffff168152505050620001fa565b600033905090565b60008060009054906101000a900473ffffffffffffffffffffffffffffffffffffffff169050816000806101000a81548173ffffffffffffffffffffffffffffffffffffffff021916908373ffffffffffffffffffffffffffffffffffffffff1602179055508173ffffffffffffffffffffffffffffffffffffffff168173ffffffffffffffffffffffffffffffffffffffff167f8be0079c531659141344cd1fd0a4f28419497f9722a3daafe3b4186f6b6457e060405160405180910390a35050565b600080fd5b600073ffffffffffffffffffffffffffffffffffffffff82169050919050565b6000620001908262000163565b9050919050565b620001a28162000183565b8114620001ae57600080fd5b50565b600081519050620001c28162000197565b92915050565b600060208284031215620001e157620001e06200015e565b5b6000620001f184828501620001b1565b91505092915050565b60805161146662000232600039600081816103cc015281816107c501528181610847015281816108840152610a0b01526114666000f3fe608060405234801561001057600080fd5b50600436106100ea5760003560e01c806396186c3d1161008c578063aeff654811610066578063aeff65481461022b578063e4b6f7991461025b578063f2fde38b14610279578063fe2cd09714610295576100ea565b806396186c3d146101bf57806398d5fdca146101ef578063a0560a2f1461020d576100ea565b80633610724e116100c85780633610724e14610149578063715018a6146101795780638c6b0368146101835780638da5cb5b146101a1576100ea565b8063156a2104146100ef5780631d10b20e1461010d5780631fd9c23a1461012b575b600080fd5b6100f76102b3565b6040516101049190610c71565b60405180910390f35b6101156102d9565b6040516101229190610ca5565b60405180910390f35b6101336102e3565b6040516101409190610ca5565b60405180910390f35b610163600480360381019061015e9190610cf1565b6102ed565b6040516101709190610d39565b60405180910390f35b6101816105cf565b005b61018b6105e3565b6040516101989190610ca5565b60405180910390f35b6101a96105ed565b6040516101b69190610d75565b60405180910390f35b6101d960048036038101906101d49190610d90565b610616565b6040516101e69190610d39565b60405180910390f35b6101f76107b9565b6040516102049190610ca5565b60405180910390f35b6102156107c3565b6040516102229190610c71565b60405180910390f35b61024560048036038101906102409190610e0f565b6107e7565b6040516102529190610d39565b60405180910390f35b61026361083b565b6040516102709190610d39565b60405180910390f35b610293600480360381019061028e9190610e0f565b610984565b005b61029d610a07565b6040516102aa9190610ca5565b60405180910390f35b600660009054906101000a900473ffffffffffffffffffffffffffffffffffffffff1681565b6000600254905090565b6000600454905090565b6000600354421115610334576040517f08c379a000000000000000000000000000000000000000000000000000000000815260040161032b90610e99565b60405180910390fd5b600254826004546103459190610ee8565b1115610386576040517f08c379a000000000000000000000000000000000000000000000000000000000815260040161037d90610f8a565b60405180910390fd5b6000826001546103969190610faa565b905082600460008282546103aa9190610ee8565b9250508190555082600560008282546103c39190610ee8565b925050819055507f000000000000000000000000000000000000000000000000000000000000000073ffffffffffffffffffffffffffffffffffffffff166323b872dd3330846040518463ffffffff1660e01b815260040161042793929190611004565b6020604051808303816000875af1158015610446573d6000803e3d6000fd5b505050506040513d601f19601f8201168201806040525081019061046a9190611067565b6104a9576040517f08c379a00000000000000000000000000000000000000000000000000000000081526004016104a0906110e0565b60405180910390fd5b600660009054906101000a900473ffffffffffffffffffffffffffffffffffffffff1673ffffffffffffffffffffffffffffffffffffffff1663a9059cbb33856040518363ffffffff1660e01b8152600401610506929190611100565b6020604051808303816000875af1158015610525573d6000803e3d6000fd5b505050506040513d601f19601f820116820180604052508101906105499190611067565b610588576040517f08c379a000000000000000000000000000000000000000000000000000000000815260040161057f90611175565b60405180910390fd5b7fbe70afbd720e2c35e06fc6f4f983545e44c9d9c0f96f79c07d774ac6cd948f7760015484836040516105bd93929190611195565b60405180910390a16001915050919050565b6105d7610aa8565b6105e16000610b26565b565b6000600554905090565b60008060009054906101000a900473ffffffffffffffffffffffffffffffffffffffff16905090565b6000610620610aa8565b6003544211610664576040517f08c379a000000000000000000000000000000000000000000000000000000000815260040161065b9061123e565b60405180910390fd5b600660009054906101000a900473ffffffffffffffffffffffffffffffffffffffff1673ffffffffffffffffffffffffffffffffffffffff166370a08231306040518263ffffffff1660e01b81526004016106bf9190610d75565b602060405180830381865afa1580156106dc573d6000803e3d6000fd5b505050506040513d601f19601f820116820180604052508101906107009190611273565b831115610742576040517f08c379a000000000000000000000000000000000000000000000000000000000815260040161073990611312565b60405180910390fd5b8360018190555082600281905550814261075c9190610ee8565b6003819055506004600090557fcb5044cda3c27226d8ff0256ff024c7521aa7caac664f1c6b5b07e1ec5ba9395848484426107979190610ee8565b6040516107a693929190611195565b60405180910390a1600190509392505050565b6000600154905090565b7f000000000000000000000000000000000000000000000000000000000000000081565b60006107f1610aa8565b81600660006101000a81548173ffffffffffffffffffffffffffffffffffffffff021916908373ffffffffffffffffffffffffffffffffffffffff16021790555060019050919050565b6000610845610aa8565b7f000000000000000000000000000000000000000000000000000000000000000073ffffffffffffffffffffffffffffffffffffffff1663a9059cbb337f000000000000000000000000000000000000000000000000000000000000000073ffffffffffffffffffffffffffffffffffffffff166370a08231306040518263ffffffff1660e01b81526004016108db9190610d75565b602060405180830381865afa1580156108f8573d6000803e3d6000fd5b505050506040513d601f19601f8201168201806040525081019061091c9190611273565b6040518363ffffffff1660e01b8152600401610939929190611100565b6020604051808303816000875af1158015610958573d6000803e3d6000fd5b505050506040513d601f19601f8201168201806040525081019061097c9190611067565b506001905090565b61098c610aa8565b600073ffffffffffffffffffffffffffffffffffffffff168173ffffffffffffffffffffffffffffffffffffffff16036109fb576040517f08c379a00000000000000000000000000000000000000000000000000000000081526004016109f2906113a4565b60405180910390fd5b610a0481610b26565b50565b60007f000000000000000000000000000000000000000000000000000000000000000073ffffffffffffffffffffffffffffffffffffffff166370a08231306040518263ffffffff1660e01b8152600401610a629190610d75565b602060405180830381865afa158015610a7f573d6000803e3d6000fd5b505050506040513d601f19601f82011682018060405250810190610aa39190611273565b905090565b610ab0610bea565b73ffffffffffffffffffffffffffffffffffffffff16610ace6105ed565b73ffffffffffffffffffffffffffffffffffffffff1614610b24576040517f08c379a0000000000000000000000000000000000000000000000000000000008152600401610b1b90611410565b60405180910390fd5b565b60008060009054906101000a900473ffffffffffffffffffffffffffffffffffffffff169050816000806101000a81548173ffffffffffffffffffffffffffffffffffffffff021916908373ffffffffffffffffffffffffffffffffffffffff1602179055508173ffffffffffffffffffffffffffffffffffffffff168173ffffffffffffffffffffffffffffffffffffffff167f8be0079c531659141344cd1fd0a4f28419497f9722a3daafe3b4186f6b6457e060405160405180910390a35050565b600033905090565b600073ffffffffffffffffffffffffffffffffffffffff82169050919050565b6000819050919050565b6000610c37610c32610c2d84610bf2565b610c12565b610bf2565b9050919050565b6000610c4982610c1c565b9050919050565b6000610c5b82610c3e565b9050919050565b610c6b81610c50565b82525050565b6000602082019050610c866000830184610c62565b92915050565b6000819050919050565b610c9f81610c8c565b82525050565b6000602082019050610cba6000830184610c96565b92915050565b600080fd5b610cce81610c8c565b8114610cd957600080fd5b50565b600081359050610ceb81610cc5565b92915050565b600060208284031215610d0757610d06610cc0565b5b6000610d1584828501610cdc565b91505092915050565b60008115159050919050565b610d3381610d1e565b82525050565b6000602082019050610d4e6000830184610d2a565b92915050565b6000610d5f82610bf2565b9050919050565b610d6f81610d54565b82525050565b6000602082019050610d8a6000830184610d66565b92915050565b600080600060608486031215610da957610da8610cc0565b5b6000610db786828701610cdc565b9350506020610dc886828701610cdc565b9250506040610dd986828701610cdc565b9150509250925092565b610dec81610d54565b8114610df757600080fd5b50565b600081359050610e0981610de3565b92915050565b600060208284031215610e2557610e24610cc0565b5b6000610e3384828501610dfa565b91505092915050565b600082825260208201905092915050565b7f5468652073616c65206973206f76657200000000000000000000000000000000600082015250565b6000610e83601083610e3c565b9150610e8e82610e4d565b602082019050919050565b60006020820190508181036000830152610eb281610e76565b9050919050565b7f4e487b7100000000000000000000000000000000000000000000000000000000600052601160045260246000fd5b6000610ef382610c8c565b9150610efe83610c8c565b9250827fffffffffffffffffffffffffffffffffffffffffffffffffffffffffffffffff03821115610f3357610f32610eb9565b5b828201905092915050565b7f43616e7420627579206d6f7265206f6620746f74616c2073616c650000000000600082015250565b6000610f74601b83610e3c565b9150610f7f82610f3e565b602082019050919050565b60006020820190508181036000830152610fa381610f67565b9050919050565b6000610fb582610c8c565b9150610fc083610c8c565b9250817fffffffffffffffffffffffffffffffffffffffffffffffffffffffffffffffff0483118215151615610ff957610ff8610eb9565b5b828202905092915050565b60006060820190506110196000830186610d66565b6110266020830185610d66565b6110336040830184610c96565b949350505050565b61104481610d1e565b811461104f57600080fd5b50565b6000815190506110618161103b565b92915050565b60006020828403121561107d5761107c610cc0565b5b600061108b84828501611052565b91505092915050565b7f4661696c656420446169207061796d656e740000000000000000000000000000600082015250565b60006110ca601283610e3c565b91506110d582611094565b602082019050919050565b600060208201905081810360008301526110f9816110bd565b9050919050565b60006040820190506111156000830185610d66565b6111226020830184610c96565b9392505050565b7f4661696c65642041786f6e207472616e73666572000000000000000000000000600082015250565b600061115f601483610e3c565b915061116a82611129565b602082019050919050565b6000602082019050818103600083015261118e81611152565b9050919050565b60006060820190506111aa6000830186610c96565b6111b76020830185610c96565b6111c46040830184610c96565b949350505050565b7f5468652070726576696f75732073616c6520686173206e6f742079657420656e60008201527f6465640000000000000000000000000000000000000000000000000000000000602082015250565b6000611228602383610e3c565b9150611233826111cc565b604082019050919050565b600060208201905081810360008301526112578161121b565b9050919050565b60008151905061126d81610cc5565b92915050565b60006020828403121561128957611288610cc0565b5b60006112978482850161125e565b91505092915050565b7f54686520636f6e747261637420646f6573206e6f74206861766520656e6f756760008201527f682062616c616e63650000000000000000000000000000000000000000000000602082015250565b60006112fc602983610e3c565b9150611307826112a0565b604082019050919050565b6000602082019050818103600083015261132b816112ef565b9050919050565b7f4f776e61626c653a206e6577206f776e657220697320746865207a65726f206160008201527f6464726573730000000000000000000000000000000000000000000000000000602082015250565b600061138e602683610e3c565b915061139982611332565b604082019050919050565b600060208201905081810360008301526113bd81611381565b9050919050565b7f4f776e61626c653a2063616c6c6572206973206e6f7420746865206f776e6572600082015250565b60006113fa602083610e3c565b9150611405826113c4565b602082019050919050565b60006020820190508181036000830152611429816113ed565b905091905056fea264697066735822122023a35eff43bb3f1ad167c3211d4d4728a217a5ff9a2c0fb032bd67c37e8a7d5264736f6c634300080e0033",
  "immutableReferences": {
    "1459": [
      {
        "length": 32,
        "start": 972
      },
      {
        "length": 32,
        "start": 1989
      },
      {
        "length": 32,
        "start": 2119
      },
      {
        "length": 32,
        "start": 2180
      },
      {
        "length": 32,
        "start": 2571
      }
    ]
  },
  "source": "// SPDX-License-Identifier: MIT\r\npragma solidity ^0.8.14;\r\n\r\nimport \"@openzeppelin/contracts/access/Ownable.sol\";\r\nimport \"@openzeppelin/contracts/token/ERC20/IERC20.sol\";\r\n\r\ncontract AxonSale is Ownable{\r\n  //////////////////////////////////////////////////////////////////////////////////////////////////\r\n  // Events\r\n  //////////////////////////////////////////////////////////////////////////////////////////////////\r\n  event newSaleEvent(uint256 e_price, uint256 e_amount, uint256 e_time);\r\n  event newBuyEvent(uint256 e_price, uint256 e_amount, uint256 e_total);\r\n\r\n  //////////////////////////////////////////////////////////////////////////////////////////////////\r\n  // State\r\n  //////////////////////////////////////////////////////////////////////////////////////////////////\r\n\r\n  uint256 private s_currentPrice;\r\n  uint256 private s_currentAmountToSale;\r\n  uint256 private s_currentEndTime;\r\n  uint256 private s_currentSold;\r\n\r\n  uint256 private s_totalsold;\r\n\r\n  IERC20 public immutable DAI_CONTRACT;\r\n  IERC20 public s_axonTokenContract;\r\n\r\n  //////////////////////////////////////////////////////////////////////////////////////////////////\r\n  // Constructor\r\n  ////////////////////////////////////////////////////////////////////////////////////////////////// \r\n\r\n  constructor (address p_daiAddress) {\r\n    DAI_CONTRACT = IERC20(p_daiAddress);    \r\n  }\r\n\r\n  //////////////////////////////////////////////////////////////////////////////////////////////////\r\n  // Public functions\r\n  //////////////////////////////////////////////////////////////////////////////////////////////////   \r\n\r\n  // => View functions\r\n\r\n  function getPrice() public view returns(uint256) {\r\n    return s_currentPrice;\r\n  }\r\n\r\n  function getAmountToSale() public view returns(uint256) {\r\n    return s_currentAmountToSale;\r\n  }\r\n\r\n  function getAmountSold() public view returns(uint256) {\r\n    return s_currentSold;\r\n  }\r\n\r\n  function getTotalAmountSold() public view returns(uint256) {\r\n    return s_totalsold;\r\n  }\r\n\r\n  function totalCurrentDai() public view returns(uint256) {\r\n    return DAI_CONTRACT.balanceOf(address(this));\r\n  }\r\n\r\n  // => Set functions\r\n\r\n  function setAxonToken(address p_axonToken) public onlyOwner returns(bool) {\r\n    s_axonTokenContract = IERC20(p_axonToken);\r\n\r\n    return true;\r\n  }\r\n\r\n  function newSale(uint256 p_price, uint256 p_amount, uint256 p_durationSeconds) public onlyOwner returns(bool) {\r\n    require(block.timestamp > s_currentEndTime, \"The previous sale has not yet ended\");\r\n    require(p_amount <= s_axonTokenContract.balanceOf(address(this)), \"The contract does not have enough balance\");\r\n\r\n    s_currentPrice = p_price;\r\n    s_currentAmountToSale = p_amount;\r\n    s_currentEndTime = block.timestamp + p_durationSeconds;\r\n    delete s_currentSold;\r\n\r\n    emit newSaleEvent(p_price, p_amount, block.timestamp + p_durationSeconds);\r\n\r\n    return true;\r\n  }\r\n\r\n  function buyTokens(uint256 p_amount) public returns(bool) {\r\n    require(block.timestamp <= s_currentEndTime, \"The sale is over\");\r\n    require(s_currentSold + p_amount <= s_currentAmountToSale, \"Cant buy more of total sale\");\r\n\r\n    uint256 amountDai = s_currentPrice * p_amount;\r\n\r\n    s_currentSold += p_amount;\r\n    s_totalsold += p_amount;\r\n\r\n    require(DAI_CONTRACT.transferFrom(msg.sender, address(this), amountDai), \"Failed Dai payment\");\r\n    require(s_axonTokenContract.transfer(msg.sender, p_amount), \"Failed Axon transfer\");\r\n\r\n    emit newBuyEvent(s_currentPrice, p_amount, amountDai);\r\n\r\n    return true;\r\n  }\r\n\r\n  function withdrawDai() public onlyOwner returns(bool) {\r\n    DAI_CONTRACT.transfer(msg.sender, DAI_CONTRACT.balanceOf(address(this)));\r\n\r\n    return true;\r\n  }\r\n}",
  "sourcePath": "C:\\Users\\PatoVerde\\Documents\\WORK\\AuriNext\\contracts\\AxonSale.sol",
  "compiler": {
    "name": "solc",
    "version": "0.8.14+commit.80d49f37.Emscripten.clang"
  },
  "schemaVersion": "3.4.8",
  "updatedAt": "2022-07-14T14:08:10.785Z",
  "devdoc": {
    "kind": "dev",
    "methods": {
      "owner()": {
        "details": "Returns the address of the current owner."
      },
      "renounceOwnership()": {
        "details": "Leaves the contract without owner. It will not be possible to call `onlyOwner` functions anymore. Can only be called by the current owner. NOTE: Renouncing ownership will leave the contract without an owner, thereby removing any functionality that is only available to the owner."
      },
      "transferOwnership(address)": {
        "details": "Transfers ownership of the contract to a new account (`newOwner`). Can only be called by the current owner."
      }
    },
    "version": 1
  },
  "userdoc": {
    "kind": "user",
    "methods": {},
    "version": 1
  }
}